:4000000000800020110000002D0700002D07000080B500AF00F094FB80B500AF2A4B12221A6002F099FB294B180002F0C5FB012002F0A2FB0C2002F01BF9254B254A1A603E
:40004000254B8022D2051A60244B244A126802210A431A60224B234A1A60234B00221A60224B224A126808218A431A60FA23DB00180002F0EFF91E4B180002F00DFB1D4BEE
:40008000FE2212021A601C4B1C4A1A601C4BFE2212021A60184B1B4A1A601B4B802212061A601A4B00221A60194B40221A60194B41221A60084B8022D2051A60024B002223
:4000C0001A60C046BD4680BD30001040001BB70004010B40060000800C020B4078002E407C002E406A2D000064F02E406CF02E40DC050000000301400000014040FF0080A7
:400100000403014041FF008008010B4000010B40140101401001014080B582B000AF72B6364B00221A60FB1D00221A7022E0FB1D1A7813005B009B185B00314A9B183B605F
:400140003B681A78597809020A43997809040A43DB781B06134318003B681A795B791B0213439BB2190000F03FFAFB1D1A78FB1D01321A70FB1D1B78012BD8D9214A224BE9
:400180001100180000F040FA204B8022D2021A601F4B00221A601F4B00221A601E4B992212041A601D4A1D4B1B78DBB23C218B43DBB214210B43DBB21370194A184B1B783E
:4001C000DBB216210B43DBB21370164B01221A60154B8022D2021A60144B01221A60144B01221A60134B01221A60FFF715FF00F04DFAC046BD4602B080BDC0466CF02E4093
:4002000024490100404901003049010014000B40000002400800044020500F4001700F4000700F40000204400802044018020440000404401804044010B5064C2378002BAA
:4002400007D1054B002B02D0044800E000BF0123237010BD9010002000000000EC470100084B10B5002B03D00749084800E000BF07480368002B00D110BD064B002BFBD0D7
:400280009847F9E70000000094100020EC470100A80B00200000000080B500AF00F02EF802F0FEFF00F03AF9104B1B78012B12D100F006F90E4B1B78002B04D00C4B002258
:4002C0001A7001F09BFB0B4B1B781A000123134001D000F027F8084B1B78002BE0D0064B00221A70002000F061FBD9E7AC100020AC0B0020AD100020AE10002080B500AF57
:4003000062B6074B180000F0BDFA062001F0C6FE002001F0E1FC00F051FFC046BD4680BD7D03000090B583B000AF134B1B88013B9AB2114B1A80104B1B88002B17D10E4BB5
:4003400005221A80002000F09BFFC04601F006F8031EFBD101F090FCFC1D002001F0AEFC03002370FB1D1B78180000F07BF8C046BD4603B090BDC046AE0B002080B584B0D2
:4003800000AF786039607B684C2B53D87B689A002C4BD3181B689F462B4B01221A704CE0294B01221A7048E0284B1B78042B43D1254B01221A703FE0234B01221A703CE0FD
:4003C000234A3B681000190002231A0002F023FF204B01221A7030E01E4B00221A701E4B00221A701D4B01221A7000F069F824E03B68FB60FB689B890F2B07D1FB685B68F8
:400400001A78154B1A70154B01221A70104B1A785B781B021A4300231204120C1B0C1B04134318000EF012FC07E03B681A780C4B1A7002E0C04600E0C046C046BD4604B05A
:4004400080BDC046F0470100AE1000203422002028220020AC100020AD100020AF100020B010002080B586B000AF0200FB1D1A70114B1B78002B1BD10C23FB180E221A81FA
:400480000C23FB18FA1D1A600C23FB1801229A800C23F918094B1A785B781B021A4300231204120C1B0C1B04134318000EF082FBC046BD4606B080BDB010002028220020AB
:4004C00080B584B000AF124B1B78002B1BD0104B00221A700F4B1A780C23FB181A700C23FB1800225A703B000F221A813B000C22BA181A603B0002229A80074A3800002310
:4005000000210FF0ABFDC046BD4604B080BDC046AF100020AD1000202822002080B582B000AFFB1D00221A702C4B1A782C4B1B789A4209D0FB1D01221A70294B1B78032B31
:4005400002D1284B01221A60254B1A78234B1A70224B1B78032B0FD0042B2ED0022B00D035E0FB1D1B78002B2ED0FB1D00221A70002001F093FD27E01A4B1B685A1E194B4E
:400580001A60184B1B68002B20D1062001F086FD01F0C4FD0300012B07D1002001F096FD104BFA2252011A6010E0012001F08EFD0C4BFA2252011A6008E0012001F086FD3A
:4005C000002001F06BFD02E0C04600E0C046FB1D00221A70C046BD4602B080BDB00B002034220020B40B002080B582B000AF786039603A687B680021180002F015FEC04678
:40060000BD4602B080BDC04680B586B000AF7860396000233B6100237B612FE07B699B007A68D3181B68BB600F23FB18BA681A70BB68FF229343BB6018E03B695B003A68C1
:40064000D3181B781A00BB68D31819003B695B003A68D3185B780B703B6901333B610F23FB181A780F23FB18013A1A700F23FB181B78002BE1D17B6901337B617B69032BD1
:40068000CCD9C046BD4606B080BDC04680B500AF074B03221A60074B03221A60064B00221A60012000F00AF8C046BD4680BDC0463000304030003140000E3F4080B584B04A
:4006C00000AF0200FB1D1A70154B1B68FB60FB1D1B78002B05D0FB68802212061343FB6003E0FB685B005B08FB600D4BFA681A600C4B1B68FB60FB1D1B78002B05D0FB681A
:40070000982292051343FB6003E0FB68064A1340FB60044BFA681A60C046BD4604B080BD80033A4008010B40FFFFFFD980B500AF02F036FD03001B680C2B00D1FEE7FEE7C6
:4007400080B586B000AF224B7B61224B3B61204B7B6135E03B691B68FB603B695B68BB603B699B683B6000237B600CE0FB681A68BB681A60BB680433BB60FB680433FB6095
:400780007B6804337B607A683B689A42EED13B69DB683B6000237B6008E0BB6800221A60BB680433BB607B6804337B607A683B689A42F2D13B6910333B617B69013B7B61F0
:4007C0007B69002BC6D102F0F1FCFFF765FDFEE701000000BC4D010080B582B000AF154B144A126801218A431A6000237B600FE07B68032B04D8104B7A689200D35800E0C1
:400800000E4B0F4A796889008B507B6801337B607B682F2BECD9FFF77FFC0A4B00221A60044B044A126801210A431A60C046BD4602B080BD00001040000000002D070000EF
:4008400000000020C000002080B500AF064B00221A70064B00221A70054B00221A7000F009F8C046BD4680BD3F220020382200203E22002080B500AF00F0F6FBC046BD461E
:4008800080BDC046B0B594B004AF78603E23FB1800221A802823FA183D4B1000190014231A0002F0B8FC3B4B1B78002B04D1FFF7CBFF384B01221A707B68002B5CD0364BC8
:4008C0007A681A603E23FB181B88002B29D11023FB181C22BA185A601023FB182022BA181A601023FB1800221A812023FB181B221A802023FB181B225A802023FB18042263
:400900001A711C23FB1808221A703E23FC180E23FA181023FB181100180002F09DFD030023803E23FB181B88002B29D13E23FC182823FD18AE231A01184919480023029356
:4009400000230193052300932B0002F0DBFC030023803E23FB181B88002B11D1114B01221A703E23FC18104B1222102118000FF05DFB0300238003E03E23FB1801221A80E0
:400980003E23FB181B881800BD4610B0B0BDC04660490100B11000202C220020C8000020E90C0000342200207C49010090B585B000AF0200FB1D1A70FB1D1B78022B04D93E
:4009C0000E23FB1801221A804CE02A4B1B78042B43D1294B1B78DBB21A00042313403CD1FB1D1B78002B0DD1244B1E221A82234B5B68902252001A80204B5B68A02252003A
:400A00005A8010E0FB1D1B78012B0CD11B4B96221A821A4B5B68C822D2001A80174B5B68FA2212015A80164BFA1D12781A700E23FC18124B18000CF02BFF030023800E238F
:400A4000FB181B88002B0DD10B4B1B78DBB204221343DAB2084B1A7004E00E23FB180422FF321A800E23FB181B881800BD4605B090BDC046342200203F220020080C00200E
:400A80003E22002080B584B000AF78600A00FB1C1A700023BB60BB68002B20D07B689A79BB681A700F23FB1800221A7012E00F23FB181B780133BA68D3180F22BA18127873
:400AC00079688A5C1A700F23FB181A780F23FB1801321A700F23FB181B78052BE7D9C046BD4604B080BDC04680B582B000AF78607B681B789AB27B6801331B789BB21B0240
:400B00009BB213439BB21800BD4602B080BDC04690B585B000AF78600F23FB1800221A707B689B890B22934232D17B68181D7A680F23FC18402300210FF090FA03002370D4
:400B40000F23FB181B78002B1AD17B685B681800FFF7CAFF03001A00022313409BB2002B07D00F4B1B687968822252001000984706E00B4B1B6879680622FF32100098479B
:400B8000084B1B78DBB201229343DAB2054B1A700F23FB181B781800BD4605B090BDC0462C2200203F22002090B585B000AF78600F23FC187B681800FFF7AAFF0300237002
:400BC000154B1B78DBB21A00012313401FD10F23FB181B78002B16D00823FB1812229A707B689A890823FB181A800823FB180F22BA181278DA700823FA187B6811001868EB
:400C00000DF09AFF03E07B6818680EF01FF8C046BD4605B090BDC0463F22002080B582B000AF7860C046BD4602B080BD80B500AF044B00225A70034B00221A70C046BD4629
:400C400080BDC0463C22002080B582B000AF7860C046BD4602B080BD80B500AFC046BD4680BDC04680B584B000AF78600E23FB1800221A707B689B79002B1CD10F23FB1869
:400C800000221A7012E00F23FB181B787A68D35C002B04D00E23FB1801221A700BE00F23FB181A780F23FB1801321A700F23FB181B78052BE7D90E23FB181B781800BD463F
:400CC00004B080BD80B582B000AF0200BB1D1A80C046BD4602B080BD80B582B000AF7860C046BD4602B080BD80B588B000AF02003960FB1D1A70CD4B1B78DBB20122134391
:400D0000DAB2CA4B1A70FB1D1B78712B00D96BE19A00C74BD3181B689F461023FB1807221A701023FB1800225A701023FB18180004F0A2FA1023FB1807221A701023FB18C5
:400D400001225A701023FB18180004F095FA0023002B01D002F09CFAB64B1B681800FFF781FF031E11D0B34B1B68180002F09CFAB04B1B6800211800FFF784FEAD4B1B681F
:400D800001211800FFF77EFE36E0AB4B1B781A003F231A40A94B1B789901FC231B010B401A43A74B1B781903F8235B020B401A43A44B1B785904FE231B040B401343BB6171
:400DC000BB69DAB2A04B1A70BB691B0ADAB29E4B5A70BB691B0CDAB29B4B9A709A4B180002F062FA984B00211800FFF74BFE964B01211800FFF746FE03200CF0EDFB0C234E
:400E0000FB183F221A700C23FB1800225A700C23FB1818000CF0FEFB8C4B04221A70EAE03B681800FFF710FFE5E03B681A78884B1A70E0E03B687B617B691B78002B00D01E
:400E4000D4E07B695B78002B0BD1824B0022DA80804B00229A807F4B7F4A1A607B697D4A5A60724B1B78DBB201229343DAB26F4B1A70BBE06D4B1B78DBB21A002023134075
:400E800000D0B5E0754B1B78102B02D1734B0522DA70734B1B78714A110018000CF0BAFC03001A000A23FB181A800A23FB181B88002B06D06B4B1B680A22BA1811003620DD
:400EC00098475A4B1B78DBB201221343DAB2574B1A708DE03B681800FFF7FEFE8BE03B681800FFF7F9FE594B02221A7083E0574B04221A707FE0554B1B78022B00D179E000
:400F00004A4B1B78DBB21A000123134000D171E0464B1B78DBB21A00042313400BD04B4B03221A70414B1B78DBB204229343DAB23E4B1A705EE03D4B1B78DBB21A00082372
:400F400013400BD0414B04221A70384B1B78DBB208229343DAB2354B1A704BE03B4B1B78032B47D1394B04221A7043E03B681B881800FFF7A7FE3EE0394A3B681000190087
:400F800002231A0002F047F9314B00221A70FFF763FE30E0FFF74AFE2DE03B685B88162B05D81E23FB183A6852881A8003E01E23FB1817221A801E23FB1819883B681A8894
:400FC00000231204120C1B0C1B04134318000DF0BDFD10E03B681800FFF7E6FD0BE03B681800FFF71BFE06E0C04604E0C04602E0C04600E0C0460D4B1B78DBB21A0011238C
:4010000013400ED0094B1B78DBB201229343DAB2064B1A70134B1B68FA1D1278396810009847C046BD4608B080BDC0463F220020C84A0100240C00207CF2FF0F7DF2FF0FB8
:401040007BF2FF0F78F2FF0F1C0C00203422002038220020B4100020A80B00209C0C00203C2200202C22002080B500AFC046BD4680BDC04680B582B000AF00237B6007E0AF
:401080007B680021180000F04DFC7B6801337B607B68002BF4D000F009F8002000F0A8FB00F078F9C046BD4602B080BD80B582B000AF244B1B68DAB2234B1A70224B1B788E
:4010C0007B607B680F2293437B60204B1B78DBB21A000F2313407A6813437B607B68F02293437B60194B1B78DBB21A00F02313407A6813437B60134B7A681A60144B154ADE
:401100001A60154B154A1A60154B1B687B607B680F2293437B607B68062213437B60104B7A681A60102001F06FFA0E4B1900102001F0DAF90321102001F0FCF9C046BD4653
:4011400002B080BD00FF28404022002062F2FF0F0800284000020001040028400008A00100040240711D000080B582B000AF01F049F800F0F9FF0021002001F007F8002157
:40118000002001F051F8FF2000F0D6FF402001F021F8084B1B687B607B68074A13437B60044B7A681A60102001F018FAC046BD4602B080BD040028400010088080B500AFB3
:4011C0000C4B1B78002B04D1FFF754FF094B01221A70FFF7C9FF00F037FE074B01221A70064B064A12688021C9030A431A60C046BD4680BDC5100020BC10002004002840F7
:4012000080B584B000AF0200FB1D1A70FB1D1A78FB1D01321A70FB1D1B78012B0CD0FB1D1A78094B1100180000F0FCFA0300FB60FB68002BEAD000E0C046FB1D1B78180064
:40124000BD4604B080BDC046C410002080B582B000AF7860084B00221A707B68DAB2074B1A70054B81221A707B68180000F07CF9C046BD4602B080BDBE100020BF10002096
:4012800080B586B000AF78602E4A7B68D3181A782D4B1A702D4A7B68D3181B787B617B69002B01D101237B61264A7B68D3181B781A007B69D318013BFB6000233B610BE0D2
:4012C000234A3B69D3181978224A3B69D3180A1C1A703B6901333B613B69002BF0D000233B611AE0184B1B78DBB21A003B699A420AD83A69FB689A4206D83969144B012217
:40130000180000F0B1FA05E03969114B0022180000F0AAFA3B6901333B613B69002BE1D0094B1B78DBB2002B08D10B4B41221A70054B1B78DBB2180000F016F9C046BD460A
:4013400006B080BDF44C0100BF100020F84C0100C410002048220020BE10002080B500AF044B1B78DBB21A00012313401800BD4680BDC046BE10002080B582B000AF78607B
:40138000034B7A685200D35A1800BD4602B080BDC010002080B582B000AF00237B6006E07B68180000F062F87B6801337B607B68002BF5D0C046BD4602B080BD90B587B00C
:4013C00000AF786002237B6100231322BA18191C0B1CDB185B18137000221223FB1892001A701123FC1801F0F0F9030023701D4B7A699200D3581B68FB601223FB181B78F7
:401400000F229A401300DA43FB681340FB601223FB181B7804229A401300FA681343FB60114B7A699200D3580F4A796989008A581268132179180978072088400100C94301
:401440000A401A60074B7A699200D358FA681A601123FB181B78180001F0BBF9C046BD4607B090BDA04C0100BC4C010090B589B000AF786002237B6100221323FB1892003D
:401480001A7000231222BA18191C0B1CDB185B1813700023FB61304A7B68D3181B78BB612E4B7A699200D3582C4A796989008A5812681321791809780F2088400100C9431E
:4014C0000A401A60BB69022B01D10023BB61BB69012B01D00623FB611123FC1801F075F9030023701E4B7A699200D3581B68FB601223FB181B7807229A401300DA43FB688B
:401500001340FB601223FB181B78FA699A401300FA681343FB60124B7A699200D358FA681A601123FB181B78180001F052F90D4B7A699200D3580B4A796989008A581268A4
:401540000021080001218140C9430A401A60C046BD4609B090BDC04658220020A04C0100BC4C0100D84C010090B589B000AF78601723FB1800221A701723FB181A785F4B3E
:401580009200D358BB617A685D4B1100180000F049F903003B61BB695A4A934209D8BA693B699A401300BB61BB69FF2212041343BB6100F027FE00F0D7FD534A7B68D3186F
:4015C0001B789BB2013B9BB20021180000F0DEFD4E4A7B68D3181B789BB2013B9BB20021180000F021FEFF2000F0A6FD402000F0F1FD474B1B78002B39D0102001F004F801
:40160000444B1B68FB61FB6940221343FB61FB6980229343FB610F23FB183C497A688A1812781A700E23FB1837497A688A1812781A700F23FB181A7813001B039B1A1B04F2
:4016400018000E23FB181B781722BA1811782B4A89008A585343984203D2FB6980221343FB612C4BFA691A60102000F0B7FF102000F0CAFF284B1B68FB61FB69274A13407D
:40168000FB61274A7B68D3181B781900254A7B68D3181B781B040B43FA691343FB611E4BFA691A601B4B1B68FB61FB691E4A1340FB61FB691D4A1343FB61102000F08EFF61
:4016C0007B681800FFF77AFE0D23FC1801F07DF8030023700F4BFA691A60002001F06CF8134BBA691A600D23FB181B78180001F070F8C046BD4609B090BDC046A80C00206A
:4017000044220020FFFFFEFF5C2200204C220020BD100020040028400800284000FF80FF5022002054220020FF1FDFFF200020000C00284080B586B000AF7860234B1B68FA
:4017400099B2234B7A685200D15200237B61214B7A699200D358204A934214D87A681F4B1100180000F05EF803003B61184B7A685200D35A1A003B691A41130099B2144B2F
:401780007A685200D1527B681800FFF76FFE102000F03AFF124B1B68FB60FB68114A1340FB60FB68A02212021343FB600C4BFA681A600D4B0C4A12680C490A401A601020E6
:4017C00000F00CFFC046BD4606B080BD0C002840C0100020A80C0020FFFFFEFF4422002004002840FF1FDFFF0800284000FF80FF80B584B000AF78607B68032213407B60BD
:40180000074B1B68FB607B685B02FA681343FB60034BFA681A60C046BD4604B080BDC0460400284080B584B000AF786039603B68DB08FB603B680722134001229A400B23DB
:40184000FB181A707A68FB68D3181B780B22BA1812781340DBB2002B01D0012300E000231800BD4604B080BD80B586B000AFF860B9607A60BB68DB087B61BB68072213408A
:4018800001229A401323FB181A707B68002B0DD0FA687B69D318F9687A698A1811781322BA1812780A43D2B21A700EE0FA687B69D318F9687A698A1812781321791809780C
:4018C000C943C9B20A40D2B21A70C046BD4606B080BDC04680B584B000AF78600023BB600023FB6015E07B681800FFF7AFFCC046FFF734FD0300012BFAD07B681800FFF7B3
:401900003BFD03001A00BB689B18BB60FB680133FB60FB68002BE6D0BB689BB21800BD4604B080BD80B582B000AF786039603B68D9B2044A7B68D3180A1C1A70C046BD4625
:4019400002B080BD5822002080B584B000AF78600F23FB1816497A688A1812781A70154B7A685200D15A144B7A685200D152134A7B68D31800221A70114A7B68D31800221B
:401980001A700F23FB181B780F22BA1812780D49895C0D4AD154074B7A685200D15A0B4B7A685200D152C046BD4604B080BDC0469C4C0100C0100020C8100020CC10002056
:4019C000D0100020B40C0020D81000206C22002080B582B000AF78607B681800FFF736FCC046FFF7BBFC031EFBD17B681800FFF7ABFFC046BD4602B080BDC04680B582B0A0
:401A000000AF00237B6006E07B681800FFF7E0FF7B6801337B607B68002BF5D0C046BD4602B080BD90B587B000AF78600F23FB187D497A688A1812781A700F23FB181A7809
:401A40000E23FB1879498A5C1A701023FB18784A796849008A5A1A80764B1B78002B15D0754B7A685200D25A1023FC181023FB181B881100180000F05DF9030023806E4BBE
:401A80007A685200102179180988D1527B68D9B2674A6A4B180000F05FFF694B7A685200D35A1022BA1812889A4212D3654A7B68D31800221A70624B7A685200D25A122363
:401AC000FB181021791809888A1A1A8001237B610CE05B4B7A685200D15A1223FB181022BA1812888A1A1A8000237B617B69002B2AD10F23FB181B78534AD35C9BB21222FF
:401B0000BA1812889A421FD94E4A7B68D3181A784E497B68CB181B789A4209D37B681800FFF712FF474A7B68D31800221A7051E0444A7B68D3181B780133D9B2414A7B686B
:401B4000D3180A1C1A7045E00E23FB181B789BB21222BA1812889A420DD90F23FB181B78394AD35C9BB21222BA1812889A4231D27B69002B2ED1324B7A685200D35A1B02C0
:401B8000BB60334A7B68D3181B781A00BB681343BB601023FB181B88BA68D318BB60284B7A685200D35A1A00BB689B1ABB60BB681B0A99B2224B7A685200D152BB68D9B287
:401BC000234A7B68D3180A1C1A701E4A7B68D31800221A700E23FB181B789BB21222BA1812889A4217D97B69002B14D01223FB181B88FF2B05D9174A7B68D318FF221A70C8
:401C00000EE01223FB181B88D9B2124A7B68D3180A1C1A7004E00F4A7B68D31800221A70C046BD4607B090BD9C4C010060220020C0100020AD0C00206C2200208C220020D2
:401C4000C81000206422002068220020AC0C0020CC100020D010002080B582B000AF78607B68180000F06CF97B681800FFF7DAFEC046BD4602B080BD80B582B000AF002310
:401C80007B6011E07A680C4B11001800FFF7CAFD03003B603B68002B03D07B681800FFF7DBFF7B6801337B607B68002BEAD0C046BD4602B080BDC046C410002080B582B01C
:401CC00000AF7860034A7B68D3181B781800BD4602B080BDD010002080B584B000AF78600F23FB1800221A7001210E23FB180F22BA1812788A181A700F23FB1819780C4B78
:401D000001221800FFF7B0FD0F23FB181A780F23FB1801321A700F23FA180E23FB1812781B789A42E8D3C046BD4604B080BDC046C410002080B584B000AF0200BB1D1A8030
:401D40003B1D0A1C1A80BB1D1A883B1D1B88D318FB603B1D1B885B00FA68D318FB60FB689B08FB60FB689BB21800BD4604B080BD80B500AF102000F047FC2D4B01221A6019
:401D80002C4B1B78DBB21800FFF7D4FC2A4B1B78DBB25BB2002B08DA274B1B78DBB201229343DAB2244B1A703CE0224B1B78DBB21800FFF725FA03001A001E4B1A701D4BA1
:401DC0001B78DBB2002B06D11A4B1B78DBB21800FFF7CAFB26E0184B1B78DBB201229343DAB2154B1A70144B1B78DBB21A004023134017D0114B00221A700FE00F4B1B7857
:401E00001A000E4B1B7819000D4B595C0D4B99540A4B1B780133DAB2084B1A70074B1B78002BEBD0102000F0D9FBC046BD4680BD14002840BF100020BE100020DA10002044
:401E400048220020C410002080B582B000AF334B01221A70314B01225A70304B01229A702E4B0C22DA802D4B2D4A9A802B4B2D4A9A6000F0A1F800233B6007E02A4B3A685C
:401E800092002A49D1503B6801333B60234B5B781A003B689A42F1D800237B600CE0244A7B68D31804221A70224A7B68D31801221A707B6801337B607B68002BEFD000F07B
:401EC00089F81D4A154B1100180000F0A5FC134B180000F0B2FC194B01221A70164A0F4B1100180000F098FC0C4B180000F0C6FC0A4B180000F088F800237B6006E07B688F
:401F0000180000F01DF87B6801337B607B68002BF5D0C046BD4602B080BDC0468C220020CC0400000C4D0100A80C00200000FF0F4C2200205C2200209A0D0000BD10002027
:401F400080B584B000AF7860164A7B68D3181B78FB600B23FB181449FA688A1812781A700B23FB181B785B08D9B2104AFB68D3180A1C1A700B23FB181B785B08D9B20C4A6D
:401F8000FB68D3180A1C1A700B23FB181B78DB08D9B2084AFB68D3180A1C1A70C046BD4604B080BD9C4C0100B00C002060220020682200207022002080B500AF044B044A53
:401FC000126840218A431A60C046BD4680BDC0460400284080B582B000AF094B1B687B607B68084A13407B607B688022920013437B60034B7A681A60C046BD4602B080BDF2
:4020000008002840FFFCFFFC80B584B000AF78600023FB6019E01C4AFB68D3181B785B08D9B21A4AFB68D3180A1C1A70164AFB68D3181B7801335B08D9B2134AFB68D3182E
:402040000A1C1A70FB680133FB607B681B781A00FB689A42DFD8102000F0D6FA0C4B1B68BB60BB680B4A1340BB60BB680A4A1343BB60074BBA681A60102000F0AFFAC046C8
:40208000BD4604B080BDC046502200205422002008002840FFFCFFFC0002000180B582B000AF0200FB1D1A70064B064A126806491140FA1D127892040A431A60C046BD4619
:4020C00002B080BD08020440FFFFE3FF80B584B000AF0200FB1D1A700F4B1B68DAB20F23FB1840218A431A70FB1D1B789B01DBB240221340D9B20F23FB180F22BA181278BB
:402100000A431A70044B0F22BA1812781A60C046BD4604B080BDC0460002044080B500AF044B1B68402213409B09DBB21800BD4680BDC0460402044080B582B000AF7860FA
:40214000C046074B1B68002BFBDB054B7A68120204490A431A60C046BD4602B080BDC046000001404000008080B500AFC046054B1B68002BFBDB034B034A1A60C046BD464E
:4021800080BDC046000001404000004080B584B000AF0200BB1D1A807B1D0A1C1A700C4B1B6807221340FB60BB1D1B881A02FB681A437B1D1B78DB00FF210B401343BB605D
:4021C000034BBA681A60C046BD4604B080BDC0460003014080B582B000AF7860C046074B1B68002BFBDB054B7A68120204490A431A60C046BD4602B080BDC046000001404E
:402200004100008080B500AFC046054B1B68002BFBDB034B034A1A60C046BD4680BDC046000001404100004080B584B000AF0200BB1D1A807B1D0A1C1A700C4B1B68072225
:402240001340FB60BB1D1B881A02FB681A437B1D1B78DB00FF210B401343BB60034BBA681A60C046BD4604B080BDC0460403014090B585B000AF78600C23FC1800F0A5FA72
:40228000030023707B68022B00D8AFE07B68302B00D9ABE05C4B1B78DBB21A007B689A420AD35A4A0F23FB1812781A70584A0E23FB1812781A703FE0564B1B78DBB21A0001
:4022C0007B689A420AD3544A0F23FB1812781A70524A0E23FB1812781A702DE0504B1B78DBB21A007B689A420AD34E4A0F23FB1812781A704C4A0E23FB1812781A701BE0FF
:402300004A4B1B78DBB21A007B689A420AD3484A0F23FB1812781A70464A0E23FB1812781A7009E0444A0F23FB1812781A70434A0E23FB1812781A707B68DA1E0B23FB188E
:402340003F498A5C1A700B23FB181B782F2B0DD97B682A2B0AD93B4B19221A60052000F02BFA0D23FB1819221A7007E0354B1B68DAB20D23FB183F210A401A700B23FA188C
:402380000D23FB1812781B789A4208D22D4B7A68033A2B498A5C1A60052000F00DFA2A4B7A6826498C4662441278D2B21A60274B0F22BA1812781A60254B0E22BA18127845
:4023C0001A60052000F068F90B23FA180D23FB1812781B789A420CD91A4B7A68033A18498A5C1A60052000F0E7F902E0002000F021F90C23FB181B78180000F0EAF9C04680
:40240000BD4605B090BDC04640F3FF0F41F3FF0F42F3FF0F43F3FF0F44F3FF0F45F3FF0F46F3FF0F47F3FF0F48F3FF0F49F3FF0F4AF3FF0F4BF3FF0F4CF3FF0F4DF3FF0FA8
:40244000684D01002CFF0B4028FF0B401CFF0B4020FF0B4080B584B000AF78600023FB60154B154A126801210A431A60134B144A1A60144B134A1268802109020A431A607F
:402480007B68002B12D01023FB600CE0012000F003F900F019F8031E02D00023FB6005E07B68013B7B607B68002BEFD1FB681800BD4604B080BDC04660F02E4078002E406D
:4024C0000220000010002E4080B582B000AF054B1B68012213407B607B681800BD4602B080BDC0460C002E4080B584B000AF02003960FB1D1A7080239B05FB60FB1D1B78F7
:402500001F2B02D9002000F095F8FB1D1B7810339B00FA68D3181B68BB60FB1D1B7810339B00FA68D3183A681A60BB681800BD4604B080BD90B587B000AF0200FB1D1A7075
:40254000BB1D0A1C1A70BB1D1B78032B02D9002000F070F8FB1D1B781F2B02D9002000F069F8FB1D1B7803221340DB0006337B611323FC1800F029F903002370FB1D1B78F6
:402580009B08DBB29B00144A944663441B68FB6003227B699A401300DA43FB681340FB60BB1D1A787B699A401300FA681343FB60FB1D1B789B08DBB29B00074A94466344D9
:4025C000FA681A601323FB181B78180000F001F9C046BD4607B090BD00E400E080B582B000AF0200FB1D1A70064BFA1D12781F210A40012191400A001A60C046BD4602B0E8
:4026000080BDC04600E100E080B582B000AF0200FB1D1A70064BFA1D12781F210A40012191400A001A60C046BD4602B080BDC04680E100E080B582B000AF0200FB1D1A70F0
:4026400001BEC046BD4602B080BDC04680B582B000AF786009E00D4B1B68180000F0ACF87B680B4A944663447B607A6880231B029A42F0D8074B1B687A685343180000F010
:402680009BF8C046BD4602B080BDC046C80C00200080FFFFC00C002080B582B000AF0200BB1D1A80BB1D1B88044A12785343180000F082F8C046BD4602B080BDC40C00204E
:4026C00080B500AF0F4B0F4A126801218A431A600C4B0C4A126802218A431A600A4B0A4A126830218A4310210A431A60064B064A126807218A4301210A431A60C046BD4694
:4027000080BDC04600F02E4000FF2E4080B500AF0F4B0F4A126802218A431A600D4B0D4A126807218A4302210A431A60094B094A126830218A4320210A431A60044B044A24
:40274000126801210A431A60C046BD4680BDC04600F02E4000FF2E4080B500AFFFF7B0FF044B044A1268802109060A431A60C046BD4680BD00F02E4080B584B000AF786034
:402780000C4B1B6801221340FB607B68002B02D0012B03D005E0FFF793FF06E0FFF7B6FF03E00020FFF746FFC046FB681800BD4604B080BD00F02E400230800803D00138BA
:4027C000FDD1C046C046C0467047EFF3108072B6704780F310887047F7B59C180023071C08268025019100922370237800982B432370BB689B6C9847019B984202D22378DD
:40280000AB432370013E6D08002EEED12378F82B01D9F8232370F7BD70B5051C0E1C00242B789C4208D2AB68221C281C311C1B68FFF7D2FF0134F3E770BD38B5051C0024F3
:402840002B789C4219D2AA6813681B5DDB080F2B00D90F23D16BD268C95C1155AA68042B04D9936D906B211C012203E0936D906B211C002298470134E2E738BDF0B5041C71
:40288000002687B063789E4262D2A3685A6C925D0392002A01D1013203921A6C925D019201992278914251D29A689B69515C0F221140B2000492002205910499019D5A5067
:4028C000019B5B000293039B019A9B189D423DD2A768E388A0885843FB68595D00F074FB3B68595D00F0E6FA059B5843194B40005A2802D95B084008FAE7BA6904991B0CE5
:402900001B045350A36882085B6B01215855A368C008DB69029F5A550F22A36849421B6A5855A3685B6A5A55A368986AC1530021D86AC153186B9B68C1535B19197801355F
:402940000A401A703B1C02330293BCE7013699E707B0F0BD0000FFFFF0B585684E002B6B925B9B191C8887B0141B0094AC6A1A80A45B6B6A0294EC6A5F5CA45B2B6A03949B
:402980006C6B7F00645C5B180494AC680193645C1B780594009CE40FA4460F24251C6744009C3D40AC46E51764196C409C4203D2012B05D0013B00E00133FF273F2B00D82E
:4029C0009F00019D2B7065460F2D29D0002D24D0BC4225D8059C029F24090094974200D9171C039D954200D2151C009A092A01D8141C01343A1C0A2C14D1EA1B934206D96C
:402A0000049A92089A42924152429B1A00E001338268D26953543A1C04E0151C644601E0151C00246746836824015B6A5F5483689F6ABA53DA6A9B6895530F225B181D789D
:402A40002A401A7083689B6859180B781C430C7007B0F0BD80B582B000AF78600A00BB1C1A80BB1C1A887B681A60C046BD4602B080BDC04680B582B000AF78600A00BB1C35
:402A80001A80BB1C1A887B681A60C046BD4602B080BDC04680B584B000AF494B1B78DBB21B02484A1278D2B21343FB60464B1B78DBB21B02454A1278D2B21343BB60BB686F
:402AC000434A934207D1FB68072B04D1414BBB600423FB6009E0BA68D4231B019A4204D1FB68042B01D13B4BBB603B4BBA681A603A4BFA681A603A4B1B78DBB21B02394A6D
:402B00001278D2B21343FB60FA6880239B019A4202D0FB68002B01D1334BFB60334BFA681A60334B1B78DBB21B02324A1278D2B21343FB60FB68304A934206D0FB682F4A9A
:402B4000934202D0FB68052B01D12D4BFB602D4BFA681A602C4B1B681B097B602B4B1B68AA2B29D17B68012B26D9214B1B78DBB20E2B21D1264B1B78DBB29BB21B0299B256
:402B8000244B1B78DBB29AB2BB1C0A431A80224BBA1C12881A60214B1B78DBB29BB21B0299B21F4B1B78DBB29AB23B000A431A801C4B3A0012881A60C046BD4604B080BD3D
:402BC00059F1FF0F58F1FF0F5FF1FF0F5EF1FF0F580B0000580D00006C002E4074002E405BF1FF0F5AF1FF0F0220000078002E405DF1FF0F5CF1FF0F0F0F0000050500004D
:402C0000050F000080002E40EC0F00F0E00F00F06DF2FF0F6CF2FF0F84002E406FF2FF0F6EF2FF0F94002E4080B582B000AF0200BB1D1A80BB1D1B881800FFF72DFDC046DB
:402C4000BD4602B080BDC04680B582B000AF78607B681800FFF7FAFCC046BD4602B080BD80B500AF00F0ECF8C046BD4680BDC04680B500AF00F0F0F8C046BD4680BDC04683
:402C800080B500AF00F0E8F8044B180000F0A2F8022000F0ADF8C046BD4680BDA52E000080B500AF034B180000F080F8C046BD4680BDC046A52E000080B500AF014B180086
:402CC000BD4680BD0202000080B582B000AF78602B231800BD4602B080BDC04680B582B000AF78602B231800BD4602B080BDC04680B582B000AF78602B231800BD4602B0EF
:402D000080BDC04680B582B000AF78602B231800BD4602B080BDC04680B582B000AF78602B231800BD4602B080BDC04680B582B000AF78602B231800BD4602B080BDC0466C
:402D400080B582B000AF78602B231800BD4602B080BDC04680B582B000AF78602B231800BD4602B080BDC04680B500AF2B231800BD4680BD80B582B000AF0200FB1D1A7077
:402D80002B231800BD4602B080BDC04680B582B000AF786039602B231800BD4602B080BD80B500AFC046BD4680BDC04680B582B000AF786000F050F87B68180000F00AF893
:402DC000022000F015F800F03BF8C046BD4602B080BDC04680B582B000AF7860034B7A681A67C046BD4602B080BDC0460000002090B585B000AF0200FB1D1A700623FB6085
:402E00000B23FC18FFF7E1FC030023700B4B0B4A1268C0218A431100FA1D1078FA68904002000A431A600B23FB181B781800FFF7D0FCC046BD4605B090BDC0460CE400E0DA
:402E400080B500AF034B802252011A60C046BD4680BDC04600E100E080B500AF034B802252011A60C046BD4680BDC04680E100E090B583B000AFFC1DFFF7A7FC0300237007
:402E8000074B074A126804218A431A6030BFFB1D1B781800FFF79DFCC046BD4603B090BD10ED00E080B500AF11F08CFCC046BD4680BDC046002243088B4274D303098B424F
:402EC0005FD3030A8B4244D3030B8B4228D3030C8B420DD3FF22090212BA030C8B4202D31212090265D0030B8B4219D300E0090AC30B8B4201D3CB03C01A5241830B8B4251
:402F000001D38B03C01A5241430B8B4201D34B03C01A5241030B8B4201D30B03C01A5241C30A8B4201D3CB02C01A5241830A8B4201D38B02C01A5241430A8B4201D34B02E3
:402F4000C01A5241030A8B4201D30B02C01A5241CDD2C3098B4201D3CB01C01A524183098B4201D38B01C01A524143098B4201D34B01C01A524103098B4201D30B01C01A18
:402F80005241C3088B4201D3CB00C01A524183088B4201D38B00C01A524143088B4201D34B00C01A5241411A00D20146524110467047FFE701B5002000F0F0F802BDC046A5
:402FC0000029F7D076E7704703460B437FD4002243088B4274D303098B425FD3030A8B4244D3030B8B4228D3030C8B420DD3FF22090212BA030C8B4202D31212090265D0C7
:40300000030B8B4219D300E0090AC30B8B4201D3CB03C01A5241830B8B4201D38B03C01A5241430B8B4201D34B03C01A5241030B8B4201D30B03C01A5241C30A8B4201D3C0
:40304000CB02C01A5241830A8B4201D38B02C01A5241430A8B4201D34B02C01A5241030A8B4201D30B02C01A5241CDD2C3098B4201D3CB01C01A524183098B4201D38B0120
:40308000C01A524143098B4201D34B01C01A524103098B4201D30B01C01A5241C3088B4201D3CB00C01A524183088B4201D38B00C01A524143088B4201D34B00C01A52416B
:4030C000411A00D201465241104670475DE0CA0F00D04942031000D34042534000229C4603098B422DD3030A8B4212D3FC22890112BA030A8B420CD3890192118B4208D3B2
:40310000890192118B4204D389013AD0921100E08909C3098B4201D3CB01C01A524183098B4201D38B01C01A524143098B4201D34B01C01A524103098B4201D30B01C01A10
:403140005241C3088B4201D3CB00C01A524183088B4201D38B00C01A5241D9D243088B4201D34B00C01A5241411A00D20146634652415B10104601D34042002B00D5494253
:40318000704763465B1000D3404201B5002000F005F802BD0029F8D016E770477047C046014B18687047C046881000200E4B70B500251E000D4CE41AA410A54204D0AB0098
:4031C000F35898470135F8E711F0E6FD084B00251E00084CE41AA410A54204D0AB00F35898470135F8E770BDA44D0100A44D0100A44D0100AC4D010030B50024A24208D0A9
:40320000035D651C0C5DA34201D0181B02E02C00F4E7002030BD002310B59A4203D0CC5CC4540133F9E710BD03008218934202D019700133FAE77047134A1088810703D0C4
:403240008107890F401A001D11791030484381B25088820703D08207920F801A001D800040180A494030098980B2CA0701D0503080B2890706D504495422091F09785143FC
:40328000081880B270470000D60C0020E810002010B501F011FF10BD10B501F013FF10BD10B500F05BFA10BD10B50749044609780220002907D1204601F054FF002802D144
:4032C00020460AF08DFA10BD740E002070B504460120002C12D02368002B0FD0616800290CD0074D06222889208118462968FFF792FF6968606809780170002070BD00005B
:40330000E8100020FFB585B0002768460E9D07734F481C460078002802D0082009B0F0BD10990F9801900095029105A807C800F007F90028F2D16946264603AB844608732B
:40334000002C19D0002115E08A00B75A082F09D990198078002805D0083FB7521878401C187005E0002914D00027B75290198770491CC9B2A942E7D360460028CED10F98B1
:40338000002809D0109901F047FA002804D00120C4E701208446EFE701F094FE2D480021416081600599016021888180022D07D3A1798171A17AC171A1890181218A4181E9
:4033C00000211EE0481C19E082008B00A75AE65ABE46BE4211D26F463E80B4461E190296B678BE7001967646E6521719029EBB78B3706646A652019EBE70401CA842E3D366
:40340000491CA942DED3134822460C3000906846037B0799069800F01BF90028B8D168460B4C007B60700B480C3001F07BFE0028AED1084907480C3107F0A2FA0028A7D1DD
:4034400007F0BCFA0028A3D10121217066E70000D00C0020DC100020F8B5054636480F460078002802D002242046F8BD002F60D000243249002D16D02A89D0070DD0286875
:40348000002808D003881B3BE12B04D24088FB2801D81B2801D2012409E0900707D56868002804D1F7E70020088108604860002CDAD122482E8906811F481B21801D01804A
:4034C0004180042101711C490020891C0870F00705D019480622801D2968FFF79CFE1749B00703D56A68144812788270124D0E46AD1D281F0D60486001F05AFE284601F0A5
:4035000049FE30890DF0BAFE30890DF0A3F828880DF0A6F830890EF01BF803461033FFF78BFE1F21C018890140183880A91F88809AE7012498E70000D00C0020E8100020AA
:40354000FFB58446384F1C460020BB883F78054602460646002F11D100290ED0029999420BD36146002908D0002C06D00A99002906D02E4B0B99994202D2012004B0F0BDE5
:40358000002144E0AB001F19BF78002F3BD0E35A002B38D07B43591889B22B0000F04AF8050410161C253100A7782388BC46FF27233BEB37BB4222D26346032B1FD322E06C
:4035C000A388002B1FD0302B19D31CE02389002B19D0282B13D316E0A289002A13D01346134F233BBB420AD20DE0268A002A0AD033460F4F233BBB4201D2964203D90120AF
:403600000EE0002001E000280AD16D1CEDB2099B9D42B7D31C2463435B1802998B42ACD89642AAD8AAE70000D00C002079020000BAFF000030B47446641E2578641CAB42D9
:4036400000D21D46635D5B00E31830BC18470000FFB583B0002469460C801F4606468C80002806D00598002803D004983043800701D0012466E0002FFBD0344904980988A5
:403680008842F6D3FFF70CFBFFF7F2FA00F016FC002855D100F07EFD002851D12C49084601F0EEF805042D0C4AD12A480499066081800021C18007810C98007AC00704D083
:4036C000684601F018FD040007D10C98007A800703D501A801F018FD0446BF1DFEB2002C20D13146059800F05DF804001AD10DF03DFF040016D16A46108892880836851872
:40370000144AF1B29088D288AEB29319984207D3401B801A80B201F0A3FB050007D000E0FF25012400F062FA002D04D008E0F8B200F01CF9F6E700F085FA07490120087082
:4037400000F0CEFB204607B0F0BD0000D40C002091380000F4100020DC0C002010B503480078012801D101F01DFA10BDDC0C002070B5084B0446DA889E8803205518B542A0
:4037800006D8186880182060D8884018D880002070BD0000F41000200148008970470000F4100020F0B587B007460D4600208900009006916846FFF7DBFF844600285DD17B
:4037C000304800990160002117E02E4B88001A680629115406D22C4C0419667882185670628805E0C419203CA67A8218567022891B68C018491C4280C9B2A942E5D3002486
:403800002DE0601CC2B2059025E01E4FA30039689600581840887118039604904E88B04217D938466F46FE80B6464F786E4677710297049F4F800168039F5E1876787918E9
:403840004E700168764659184E800068029F18184770521CD2B2AA42D7D30598C4B2AC42CFD36046002809D168460699FFF780FF8446002802D1054900980860604607B031
:40388000F0BD0000E00C0020D04D0100E40C00207047000010B5002809D005494A68002A05D0011F08788000105801F087FA10BDE00C002010B50446FFF76EFFC0B2801D51
:4038C000A0420CD307484068002808D0A100405801F0E6F9002801D00470001D10BD002010BD0000E00C0020F8B516460D460446FFF752FFC0B2801DA04203D20020C043E1
:403900000090F8BDB2B2E9B2684601F0EFF90099481C03D0024AA000526811500098F8BDE00C0020F8B50746FFF736FF801DC6B20A49002005460C680DE06178002907D05A
:403940006188B94202D32078FFF7B4FF002804D1241D6D1CEDB2B542EFD3F8BDE00C002010B5002801D0FFF795FF10BD70B506460948002504680BE06178002905D0628859
:403980002078121D0023FFF7AFFF241D6D1CEDB2B542F1D370BD0000E00C0020FFB581B00A9F16000C4620D000F0F6F8054604281BD0002F0CD03846FFF7B4FF20492A0130
:4039C00051184860002810D03A460499FFF723FC1B4928010E504618778101980570200406D47D20C000444304E0FF2005B0F0BD6404640C00F0BEF80746042807D000F028
:403A000053FAA0420BD800F04FFA201A03E0204600F0AEFA0020F06035720020E6E700F043FA009000F0BAFA00980121001B009000F0F0F802493A0151180098C860E6E702
:403A400000110020F8B5042801D3FF20F8BD060116483418217A042903D0E068002802D017E00020F8BD00F01FFA054600F096FA00F0A0F804280CD001010C480F18F868F9
:403A80000021451900F0C6F80020F860284600F06FFA6068054D002801D0FFF761FF042020720020A8516081E060DAE700110020FEB500266A463046012325490501691837
:403AC0000D7A042D02D0C96800291BD000211154401CC0B20428F0D300246846005D002830D01B48210108184189476805680291002101604160042241810272C160002E71
:403B000002D015E01354E3E700F054F804280ED001010F4808180190C6680021304600F079F801980021C160304600F021FA0126002D07D038460299A847002F02D0384609
:403B4000FFF70EFF641CE4B2042CC6D3FEBD0000001100200EB5002005216A460090118150810348694600680EF087FB0EBD0000E80C0020074A0020010189180B7A042B42
:403B800002D0C968002903D0401CC0B20428F3D370470000001100200549002002015218127A042A03D0401CC0B20428F6D370470011002030B50A4B04200A4C00210A016B
:403BC0001219157A042D06D0D268002A03D09A4201D808461346491CC9B20429EFD330BDFFFF0000001100207047000030B50020074C05460423020111190B72A5504D60B9
:403C0000401C4D81C0B2CD600428F4D330BD00000011002030B5094C00231A011219157A042D04D0D568002906D02D18D5605B1CDBB2042BF1D330BD2D1AF7E70011002083
:403C4000002070471CB5002469460C70142001902346054A05480EF015FB04480068401C00D1FF2420461CBDC13C0000E80C00203EB5124A0146FF20002301241268002981
:403C80000DD0012914D0042908D104206946009308814B8110460EF0F0FA80B23EBD6846009304814381694610460EF0E1FAF4E768460093048143816946EBE7E80C00208B
:403CC00070B545890468416800890300FFF7B2FC08280509091E22282628002005F000FD1EE0022908D0C8B22A4621460CF006FC2046FFF735FE13E002202A4621460CF0B6
:403D0000FDFB2946204600F00DF809E000200DF0B3FF05E02046FFF7CBFE01E0FFF740F8002070BD014B0022DB681847EC0C002070B5448905680089022803D0032809D092
:403D4000FF2070BD2246094C0023A46829460120A04708E0FFF7A0FA241DA2B200232946022006F0C0FC002070BD0000EC0C00207047000002480021416001804180704700
:403D8000EC0C002070B50C46002186B016460391012802D0022859D116E003A9012006F0F7FC01281BD1039D324621462846FFF732FA0095287801900220694608814E811F
:403DC0006846FFF7B5FF41E0214D002B686809D0049004A9022006F0DBFC01281DD0022006B070BD002812D0298840182146FFF712FA28880024801980B228806988091DE3
:403E0000884206D12C801348FFF792FF03E00320E6E788421AD96C6018E004986860E278A378110219430B4A698000231060E3565360032313815181A1788170E178C170DA
:403E40006178417021780170042028800020C7E7EC0C0020401100203EB515460C46022803D004280CD000203EBD0091019002206946088107484A8100680EF0FEF907E0F1
:403E80000CF03CFB044B0022DB6829462046984701203EBDE80C0020EC0C0020014AD16090607047EC0C0020034801688068081A0A214843000970474C11002010B5FEF779
:403EC000DFFE4C2204490548FFF7A5F903490120C870002010BD0000EC4D01005015002010B5FEF7BDFE10BD70B5134C2368002B08D0207B1149C20705D0400840002073F6
:403F00008868A08070BD88680B4AA18880B29268814203D90A4D691A091802E0814202D2411A5118A160A080A0689842EAD30EF0C1F900F013F870BD4C110020C0102E4078
:403F4000FFFF000010B508461946FFF7A7FF10BD704710B5FFF780FF10BD000003480021016041608160C160704700004C110020024610B5FF20002A0CD0FFF7EFFF064C9E
:403F80000321207B0843207310010A21FFF718F82060002010BD00004C11002000B504480A21806848430209FFF7D8FF104600BD4C1100200248007B8007C00F704700005F
:403FC0004C11002010B54B490868002802DA4A4B01221A70022290430860484800694549C00B4031096A0246C907C90F0A4259D0012000F097FA3F480E216C30FEF73AFD1B
:404000003E4820218430FEF735FD3C4814219C30FEF730FD3948FF21C131A430FEF72AFD3648FF212F31B030FEF724FD33483449BC30FEF71FFD31483249AC30FEF71AFDEF
:4040400030492E48491CB430FEF714FD2B482E49B830FEF70FFD29482C49CC30FEF70AFD26482B490830FEF705FD24482949A830FEF700FD214828498830FEF7FBFC1F48B3
:4040800026498C30FEF7F6FC1C481921C9029030FEF7F0FCFEF7FEFCFEF70EFEC0B2022812D01FE000290BD0002101420AD0114801216030FEF7DEFC0120FEF7C5FD97E705
:4040C0000121F2E7FF2010BD15491648FEF7D2FC14481549001DFEF7CDFC124800210830FEF7C8FC54200449C043891C0870002010BD000000F02E40FC0C002000002E4097
:40410000320300002F3F00003102000010520000EC160000FA12000031D000003AE300009956000080012E40F80F000070B50646581C80B245086D00002408E0304600F0F3
:40414000C1F81055000A1119A41C4870A4B2AC42F4D3D80705D0D0182038D15CC47FD454C17770BD30B50A4C002100195B1E07E0541864782502545C2C430480891C89B2B2
:404180009942F5DB994201D1515C018030BD000000102E4010B5FF2000F0C4F90F49FF2048700E481021801D41800121417001700A490020C91C4870FFF704FF04000AD13D
:4041C00000F010F907210648FEF744FC044807211830FEF73FFC204610BD0000FC0C0020CC112E4070B5002405465B1E0AE0284600F068F8010A161971702D1D1055A41C4A
:40420000ADB2A4B29C42F2DB9C4203D1284600F059F8105570BD000070B500210A4D5B1E0AE0541864782602545C344346193480001D891C80B289B29942F2DB994202D1FC
:40424000515C4019018070BD00102E40F0B50599091FCFB200217E1E0BE0541864782502545C2C43164D45192C80001D891C80B289B2B142F1DBFC0712D01C78515C240243
:404280000F4A0C4381180C809C785D78001D210280B2294384182180001D80B2D9780CE059781A7809021143054A84182180001DD9789B78090280B2194380180180F0BD73
:4042C00000102E40014940180088704700102E4010B50B490020487000F084F8002000F047F9002000F034F907210648FEF7B2FB044807211830FEF7ADFB002010BD000099
:40430000FF0C0020CC112E4010B50B46062812D006DC01280CD0032801D1FFF7D9FF10BD0A28FCD00B28FAD105480078107010BDFFF730FF10BD1146184600F035F910BDC2
:40434000020D0020F8B5244DAC6A0127A007234E002816DA307806280ED1286A384328621F480069F903084381B21D481030FEF781FB042000F0D6F8174802212830FEF725
:4043800069FBE00718D000F01FFF01280FD1002000F06CFF062000F0C5F81049FF20C91E48707078002802D1686B384368630A4801212830FEF74EFBE0050BD530780428AF
:4043C00002D1052000F0AEF80348FF2101312830FEF740FBF8BD000040F02E40FF0C002000002E4010B503212348FEF743FB0120FEF71AFC20483038406A204C8007617825
:40440000800F890001431C480C38FEF733FB6078002808D0401E022181401820FEF7BAFEC000083800E0B82081B21548FEF722FB1348032109021438FEF71CFB1048114968
:40444000B830FEF717FB612189010F48FEF712FB0D480321001FFEF70DFB0C490C48FEF709FB0B480B496038FEF704FB084801218838FEF7FFFA10BD70F02E40020D002094
:40448000D8102E4090890000041E2E40FF0F000058122E40209000000848017806290BD140780749002803D1486B400840004863C86A01221043C86270470000FF0C0020F5
:4044C00040F02E400148007870470000FF0C002000B50300FFF7AEF8080D050D0B070507090D012000BD032000BD042000BD022000BDFF2000BD0000074A9168D26889B2B3
:40450000064B92B2994204D105498A4201D1012100E000210170704780002E4033D000003FE3000010B50446FEF7A2FB072C01D9FF2C01D102480470FEF792FB10BD000034
:40454000FF0C00200149487070470000FC0C002010B5064A012805D01921C9021046FEF789FA10BD1D21C902F8E7000090002E4010B50A4A141D012808D009491046FEF7AE
:4045800079FA08492046FEF775FA10BD04491046891CFEF76FFA0349491DF3E788002E4031D000003AE3000070B50C460546FEF783FBC0B202280E49287804D0FF2810D0B7
:4045C0004C280CD810E0FF2809D10A4AD0680004800F032801D0087807E09069000A553803E00878207070BD4F382070087070BDFE0C002000002E40F0B50122002834D0F8
:40460000002932D00424420600D00524792342065B06D21800D0641C034600221EE00C2516466E43124D00277519AF72104F002ABB51696007D0661EB24209D10D4E86190A
:404640007606760E05E05E06760E8027BE1B00E080269B198919521C2E81D2B2A242DED303480549006B002288611046F0BD0000D813002079020000080D002018B5002021
:40468000694608700A48006900280ED0132149014018047E684604704F21C900054800F05BF8A04201D0012018BD002018BD0000080D00205C110020074900200C2242434C
:4046C0005218927A012A05D0401CC0B20628F5D30020704701207047D8130020F8B50F000446164609D01A4D1A496868A04202D94018A04201D38E4201D90120F8BD394627
:404700002046FEF779FD002820D0324639462046FEF781FD0E49F0B2012620318E7600210C220B4653430A4A9A1813895568EF18A74207D9641B1B1B9672834206DAC01AAA
:404740001469C0B2491CC9B20629E9D30020F8BDD813002079020000034610B50020024604E09C5C2018521CC0B292B28A42F8D310BD000070B500F05FF8084C064A216978
:4047800007480D46FEF747FD05492846FFF734FFFFF774FF207070BD79020000080D00205C110020002070470020054A002902D0012902D002E0906000E0D06000207047E0
:4047C000080D002070B5084C154608460549E26889182A46FEF71FFDE0684019E06028B270BD00005C110020080D00203EB50A226946FFF7E7FF044606480A220068694679
:40480000FEF7FAFC002802D00020C0433EBD20463EBD00000C0D0020002802D0044A914201D2FF20704703494A6108610020704779020000080D0020024800218160C160C3
:4048400070470000080D002070B5074C15460548A26880182A46FFF741FFA0684019A06028B270BD5C110020080D002010B503490A220968FFF7E8FF10BD00000C0D002029
:4048800010B50F4A002313600E4A13600E4B18600E4801600E49012008600E490860000290600E490C4808600D4914300860FF381538506000F0BCF800F0CAF9002010BDD3
:4048C0003C0D0020240D0020500D0020540D0020400D0020300D002020150020340D0020480D0020014610B50020002910D0094B1A689C685118A14209D258681960801804
:404900008A0704D08A07920F891A091D196010BD002010BD240D0020F8B50024164E671E321F3D463168136806E01422624310328A58521C1BD0641C9C42F6D36A1C14D022
:404940002C461422544322460C3288500C214843FFF7C8FF3168002808510AD031680020103408517068401C70602846F8BD2546E4E73846F8BD0000340D0020F3B50026FC
:40498000F64381B000281BDB1E490968884217D80299002914D01B4F142204463F1D54432546396810354859401C09D0FEF760F938682F1F4159C359994203DBFEF750F949
:4049C0003046FEBD214608310091465801590C20704308180C220299FEF71DFC0948761C001D0068C159B14200D100260549009A091D865008684159491C4151FEF730F918
:404A00000020FEBD300D0020002803DB07490968884202D90020C043704704491422091D096850431030085870470000300D0020F0B500200D4A451E0346171F50600FE0FA
:404A400014260146714314680E1DA3510C461668083433511668083435511468401C635039688842ECD30020F0BD0000340D0020F3B50026F64381B0002841DB234909685A
:404A800088423DD8029900293AD0204F142204463F1D54432546396810354859401C2FD0FEF7E6F83868415900292BD0211D009146580C21005971430F46C1190C2202984B
:404AC000FEF7A9FB11480021001D0068761C00590C34C0190160416081600C48001D00680159B14200D100260849009A091D865008684159491E4151FEF7B2F80020FEBDB6
:404B00003046FEBDFEF7ACF8FAE70000300D0020FEB504460D4600201E49089E0860471E009001900290002C11D0486885420ED2002A0CD0002E0AD0642E08D808460C3002
:404B400001681C2068430C18207A002801D03846FEBD0120226020721846FFF7DDFE6060401C13D06681A6810A4827610C3067610179A94200D205710021684601810A4658
:404B80002846029B00F040F82846FEBD00202072DDE700003C0D002038B50124009400F039F838BDFEB50027164EFF433D4600240EE01C20316860430818017A002906D0D7
:404BC0004068FFF721FF002801D0254603E0641C3079A042EDDA681C12D01C2130684D434419FEF745F869466068FFF741FF0546FEF736F8002DD9D1216868468847D5E7D0
:404C0000FEBD0000480D002038B50024009400F001F838BD1FB500220C49541E0A60002811DB496888420ED808491C220C31096850430818406801A9FFF7A0FE401C02D021
:404C4000002004B010BD2046FBE700003C0D0020F0B50021114A4D1E174611710C3F0B46BD6016E008461C2460431668041D355114680646235014680836A3551468361DB6
:404C8000A353044616680A34335318301468491C255078688142E5D30020F0BD480D002038B500210091002811DB0F49097888420DDA0D4D04010C3529680859002807D069
:404CC000201D0818694600F06FF9002801D0002038BDFDF7CDFF28680F34015D491E0155FDF7BEFF009838BD580D0020F7B582B0002502986E1E06602E48D21C024017463F
:404D00002D4A2C4610460C380178106805E02301C358002B0FD0641CE4B28C42F7D3711C28D03401211D40180191039900F02AF900281FD101E02646F1E71F48016820461F
:404D40000C300F521C480399026820460E30115419480399026820460F3011540398784300F0A0F8144900280968085102D00024009011E001251AE00F4801680198081875
:404D8000009900F02CF9002801D0012502E00098C0190090641CE4B203988442ECD3002D05D10298066004480179491C0171284605B0F0BDFCFF0000640D0020F8B50D4611
:404DC00000216A468C461180002839DB23490978884235DA214B04010C3319680A59002A2ED020460C300B5A801C0E5C184670438018954224D3854222D2002006E007462F
:404E00005F43BF18AF4206D0401CC0B2B042F6D36046002814D0114E271DC8190C366A46294600F006F900280AD168460088012808D030682946C01900F0D1F8002803D055
:404E40000120F8BD0020F8BDFDF712FF30680F34015D491C0155FDF703FFF3E7580D0020F8B50F46002400F031F8002817D10C4900220B460C334A600EE021011D680E4650
:404E80006A501D680C36AA53B61C1D680F31AA551D68641C6A54E4B2BC42EED31A71F8BD580D002000280BD0C01C074A81085068890053884118994203D893685160181841
:404EC0007047002070470000580D0020F8B5064600200F4D009029700C0121466846FEF747FC00280CD129460C3100980860301B001F84B221466846FEF73AFC002801D01D
:404F0000FF20F8BD6C800098A8600020F8BD0000580D0020F8B5002827DB19490978884223DA174C05010C342168485900281CD028460C30085A009028460E300E5C401C41
:404F40000E5420682F1DC01900F064F800280CD12068002445590EE0094829460C300068C01900F03CF8002801D00120F8BD00982D18641CE4B2B442EED30020F8BD0000EA
:404F8000580D002030B50D4604000BD0A800FFF789FF6060002805D000202570C0436080002030BD012030BD70B50D46040005D0002D03D00220205E002801DA012070BD7D
:404FC000FDF756FE0221615E60688900405828606088401E6080FDF743FE002070BD70B50D46040007D0002D05D002212078615E401E814201DB012070BDFDF739FE608841
:40500000401C00B26080616880000D50FDF728FE002070BD10B5040009D0227800216068FEF702F90020C0436080002010BD012010BDF0B500231D46002802D00224045FD4
:405040000AE00120F0BD46689F00F6598E4201D1012503E05B1CDBB29C42F4DA15700020F0BD000001480078704700006C0D00207CB505460024FEF70FF9A8796946087039
:4050800000A8062229460130FEF7C5F80021684604F0FEFD0C2806D0072806D01F2806D0122806D006E0022404E0042402E0272400E0012420467CBD014801214172704716
:4050C0005C16002010B500F05FF9FFF7FBF9FFF7FFF910BD70B504460025FEF7DDF8002C06D0A079012803D8214602F05BFD00E00125284670BD01460120002902D05020CA
:40510000088000207047000001460120002905D0034854220078504308800020704700006E0D002010B502460D49FE204870032410460DF0C5FB002810D10DF069FB0028DF
:405140000CD105F081FB002808D100F0F9FA002804D105F043F8002800D10024204610BD6C0D002070B50025044600280ED0A07901280BD8FEF790F8A0790028204602D032
:4051800003F0A2F803E003F077F800E00125284670BD0000014610B50120002904D006220248FEF738F8002010BD0000780D002001460120002903D0087802490870002062
:4051C000704700006E0D00200148007A704700005C16002038B504460120002C20D0617801291DD800290BD0FF25E535FEF754F80C4828180088C0B22070072803D00EE054
:40520000FF25CD35F2E70020694608706846FFF773F969460878012801D108202070002038BD000000102E40014A0021926810476C0D002008B500226B461A7026280CD009
:40524000094A342852680BD0352805D1900703D50021352005F0D4FB08BD19462620F9E7D007F9D03420F5E76C0D002001490872704700005C160020F8B504460120002C0A
:4052800026D06178012902D92278092A20D8002905D0FF25E5352078092803D004E0FF25CD35F8E708202070FDF7F6FF2078114F114E08280DD00020FFF75AF97078012815
:4052C000207810D00D4969180880FE2070700020F8BD0120FFF74CF90720B8810549203188800120F2E7B8810248217820308180EBE70000C0112E406C0D002000102E4012
:4053000070B50E46050001D0002400E00C4C002C11D0E28A500609D5D107C90F022003F067F8E08A40218843E08204E0D107C90F012003F05DF83146284602F041FD70BDBA
:40534000BC150020F8B50546002004460D4E009013E022466946284601F026F80098002801D00DF08FFAA878214602F083FBA878214602F071FB641CE4B2308AA042E8D803
:40538000F8BD00008816002038B51E4CFFF79AF8042813D0052811D0062812D003282AD007280AD100206946087002460120FEF7ABFFFFF787F80128FBD138BD00F09CFB0A
:4053C00038BD02F0ADFB00F097FB02F00DFC8007800F0228F4D10C4841880029F0D05B21095D0029ECD101210170A07D0140022002F0FEFF38BD02F097FB0120FFF792F8B2
:4054000038BD0000BC150020920D0020F8B50646002403F05BF80546304603F071F803460A480021068A0DE001228A401046174628401F40002803D0002F01D1224394B200
:40544000491CC9B28E42EFD82046F8BD881600201CB50020694648706846FFF7BBFE01AA69460A20FEF750FF6946042008561CBD70B50D4601F07EFB04000BD020790028D3
:4054800008D0FDF709FFE178A0782A4602F01EFD002070BD022070BD0148007970470000901500204030C07E002800D00120704700B500F001F800BD902148430749084A99
:4054C00040186030417F491CC9B24177D289914201D300214177C8B2704700009C1500208816002013B501F045FB04000BD001F0FCFE002807D0214601AA0A310620FEF7A7
:4055000003FF00201CBD02201CBD000010B50C4601F030FB00280AD001F0E7FE002806D0224604490A20FEF7EFFE002010BD022010BD00007D150020F3B581B007460146B0
:405540000026029802F0BAFF0446002F01D0002500E0154D002D21D0284601F041FB032C04D13946029803F005F806463846029902F072FA032C06D0002C10D001213846D5
:4055800001F034FC03E03146384603F003FA284602F056F90221284602F06CF9FEBD3846029902F059FAFEBDBC15002010B5044600F04CFA002804D103F0CEFE002801D0AC
:4055C0000C2010BD2078611C02F086FDFF2801D01F2010BD02F0CCFDFF280AD02178621C02F0C8F9044821780068026B601C904710BD072010BD0000B80D002010B503F033
:40560000ABFE002801D00C2010BD02F047FD03480068C06A8047002010BD0000B80D002070B50D46044610210DF06CF81021601806460DF067F8334610221946204603F01B
:40564000B9FE102130460DF05DF802202870204604F0FAFC70BD0000FEB504464078217802028006870FE0781143A5780E050002360D0543304601F07DFAEAB23B4621460A
:405680000096019000F0FAF90006000E14D10B48224600680199436928469847C0B2FF280AD10198EAB24030817EFF23491C81762146019800F0E1F8FEBD0000D40D002016
:4056C0000020704710B5044603F046FE002801D00C2010BD2078611C02F0FEFCFF2808D002F032FC044821780068426B601C904710BD1F2010BD0000B80D002010B500F0BB
:405700006BF904F06BFD002010BD10B5044600786178E2780843A17811430843217908436179084305D003F009FE002803D00C2010BD122010BD204602F0C6FD002010BD2B
:4057400010B5FDF7B9FA02F0E3FE044803F070FE02F004FC012000F003F810BD64150020F1B586B003A8009005A8019028489F22017B114001736846FDF7A8FD002845D18D
:4057800069460989C90705D0224806990068C2686846904769460989890706D5002835D11D480068816A0698884700282ED11B4E0025757075737571F57535767576757592
:4057C000B570F570B5713746F5730120D03738731F20F880FF2130467972A0300176457600F008FB00242046069901F029FD002803D1641C2406240EF5D0FD720749BD7249
:40580000B573C0310D704D704D600D7207B0F0BD50150020D40D0020B80D00209C15002070B505460E46084602F050FE0446304602F066FE0121A9400A46224001400A4396
:4058400001D0012070BD002070BD10B50446084602F056FE0121A140014201D0012010BD002010BD10B5FEF72DFE032804D102F05BF90120FEF756FE10BDFEB51C46164654
:405880000F46054601F0DCFFA878FFF711FE02460190334639460094284600F00DF8002808D1A8780199FFF72BFDFF2C02D138460CF0E8FFFEBD0000FFB585B005460E98C2
:4058C0000C46FF2810D02B49C00009680A5840180179C0795278814201D9012601E09006860F6846038108E06078A1788006860FE0780002014368460181284601F026FD2D
:40590000070007D021462846079A00F0E1FC384609B0F0BD304600F08FFD04AE0346039002AA29460096204600F0F9FB3C20405D002818D0284601F009FD012813D06846BF
:4059400000890096C0B20190A878231DFF22079902F0EAF968460089039BC2B2A878079902F02EFDD3E7684600890021C0B20091E9E70000D00D0020F8B500260025304699
:40598000FFF744FD07001DD090201149704340186030447F12E0601CFDF712FBCCB23846E040C007C00F07D02146304602F04CF821463046FFF7C0FD6D1CEDB20548018AB9
:4059C000A942E8D8761C3606360ED7D0F8BD00009C1500208816002010B502F0BFFA0020FFF7BEFE0CF0E4FF002010BDF8B5002400F0F0F80123012800D10124104F002086
:405A00003E4620360425082203E0002801D0002100E031460979002907D001290BD002290BD0114681402143CCB2401C0006000EEBD07C70F8BD1C43F7E72C43F5E700000A
:405A40009C15002010B5FFF7D1FF10BD10B5044604F016FD002802D1601C00F001F810BD1CB500240094062269460194FDF7C4FB002800D1122420461CBD0000F8B50446AD
:405A800000201E4617460D46002C12D0002D10D0022E0ED0032E0CD0002F0AD02179092907D0002905D013494A7F5A21095D8A4207D82089002104F0FCF928460CF0E2FE24
:405AC000FF20E18F012905D1002F03D0012E06D0002E04D0374301D10121E187F8BD0021E187069A2A70069A120A6A70AF70E970F8BD00005015002010B5FCF766FE044612
:405B0000FEF7E0FC012809D0FEF7DCFC022805D0FDF7AEF92046FCF75CFEEEE72046FCF758FE10BD10B50B4681791943817103D08078114602F012FC10BD10B582798A434D
:405B4000827102D1807802F01DFC10BD30B50C4C0220A28A0B4B9978002901D0022906D11D785B78EB18282B01D9032002E0032900D101205105490DC0020143A18230BD24
:405B8000C0112E40880D002000B500F029F8002807D0012805D0032801D0042801D0002000BD012000BD014600B50020C90701D000F010F800BD014600B50020C90701D04B
:405BC00000F008F800BD00000148006870470000800D002001480088000A704720102E400448008B410501D5042070474007800F7047000000102E40014840687047000032
:405C0000800D00207CB50446002568460570200610D5FFF7E5FF01280CD101A801F08AFF6846007900F058FB012001F071FE0220FFF708FF600712D50C48017901290ED1B7
:405C40000571684601F076FF6846007800F078FB0220FFF7F7FE00212620FFF7EBFA044800680169204688477CBD00008C0D0020B80D002010B501460A4A0078002410701C
:405C8000FFF7A8FF0128084603D002F089FA204610BD00F0E7F80400F9D1034801210170F5E70000880D00205C16002070B50446FFF790FF002801D00C2070BDA27B012132
:405CC0001F48002A827801D00A4301E05208520082706279012A14D0C17849084900C170184D2868016820468847207901280CD06188208803F0DEF82080207904280FD0BF
:405D000015E0C2780A43C270EAE72868C168E01D8847E01D02F0C4FA0B48008D208006E02868C168E01D8847E01D02F0B9FA074920798870204602F041FA002070BD000064
:405D40009C150020B80D002050150020880D002008B50178FFF73EFF814201D10C2008BD002914D0072069460870FFF70DFF012807D10121684600F0E5F8012801D0092026
:405D800008BDFFF7E3FE02F04DFA012011E0FFF7FBFE012806D1684601F0CCFE6846007800F0CEFA02F034FAFFF714FF0028FBD10220FFF747FE002008BD000010B501465B
:405DC0000A4A007800245070FFF704FF0128084603D002F0A3FA204610BD00F065F80400F9D1034801214170F5E70000880D00205C16002038B568460CF0DAFC002801D02C
:405E00001F2038BD01210098C90201804180002505714571857107214173857302F0CEF9009C202200212046FDF7FEF925702A460021601CFDF7F8F9204602F0B1F9204654
:405E400002F06CFA00980CF01DFD062200210448FDF7EAF902480C388560002038BD00008C0D0020F8B5044600250D4800950078012806D068460CF09BFC002803D007258A
:405E80000CE00C250AE0074E009830602278611C401CFDF7C0F93168207808702846F8BD5C160020800D0020F8B5044600250D4800954078012806D068460CF079FC00282F
:405EC00003D007250CE00C250AE0074E009870602278611C401CFDF79EF97168207808702846F8BD5C160020800D00200346084800B5834209D8184600F03CFE002804D01E
:405F00000089984201D1012000BD002000BD0000FF0E0000074A9179491C8906890E917138220A4092014907090E114308430249084070479C150020FF0E0000C006C00E83
:405F400070470000F8B507460E4600240D4803E0002C01D0002500E005462979002905D0641C2406240EF3D00020F8BD0021204601F066F92E712046FFF7CCFF28813C706D
:405F80000120F8BDBC15002010B503F047FA0222002100F003F801F08DFF10BD10B5094B40074907000F090F185A595A40185043C0086421FDF704F8002800D1012080B237
:405FC00010BD0000384E0100F7B53D20405C88B015460C46002802D02878042802D200200BB0F0BD6946087200262046FFF75AFA012800D00126204603A9383001910090E6
:4060000023460327A17E34333246206A03F02AFA02A8089900900B46019120463A4603A9243003F0A7F902466846007A2870204601F0F2F81046D3E7FFB587B00C46054616
:406040001078694608723D20005D1746002826D000262046FFF726FA012800D00126204603A93830019100902346A17E34333246206A03F0F7F902A80090291D0191204690
:406080002B1D03A924300A9A03F074F902006846007A388002D1204601F0BEF810460BB0F0BDF0B505463C20405C89B016460C4600280CD0307869460873002806D000274A
:4060C0002046FFF7EFF9012803D003E01F2009B0F0BD012703200890204604A93830019100902346E17E34333A46E06903F0BAF96846007B03A928180290009120462B46AB
:40610000019504A92430089A03F068F902466846007B3070204601F089F81046D7E7FFB505463C20405C89B016460C46002810D0084601F00BF901280BD030886946888336
:40614000002809D000272046FFF7ACF9012805D005E000200DB0F0BD0220FBE70127204603A93830019100902346E17E34333A46E06903F077F9291D2B1D07A8129A6D46CA
:4061800007C5204603A924300C9A03F027F902466846808B3080204601F048F81046D9E770B50C460646FFF77DF9012824D06079227900020243E079A37900020343607AF8
:4061C000921F0102207A0843E17A0D02A17A154C294335464035A24207D20A38221F904203D2FF20F43083420DD91E202873304600F0C8FB1E2070BD00222421304602F0B3
:406200009FFD242070BDB07801F050FD012801D0002070BD28202873304600F0B3FB282070BD00007B0C0000002801D0002000E003484030C07F012800D0002070470000EE
:40624000BC1500200146002049070ED50021084B03E0002901D0002200E01A461279022A04D0491C0906090EF3D0704701207047BC1500200146002049070ED50021084B79
:4062800003E0002901D0002200E01A461279022A04D0491C0906090EF3D0704701207047BC15002010B5044680346068002803D00CF0FCFA0020606010BD40304170704749
:4062C0004030817070474030017070470171704792001018C166704770B53C2501F030FA040004D020460021433001F093FCFF222946204600F0E8FB002C02D0A07801F06A
:40630000A1F970BD10B5002801D0002000E00348002802D0008903F013FE10BDBC15002010B5002801D0002000E00448002804D00179072901D100F047F810BDBC150020D9
:4063400010B501F0FDF9002802D0807801F07AF910BD00207047000070B50546008A00281ED01049F122097B1140C90618D5294640314A8A098A521C4A4392B2D10800D13A
:406380000121540801E0621A94B2A042FBD9FEF769FE012804D1298AA878224601F04CFD70BD00005015002010B50023054C0B60248A944204D992001018C26E0A60C36603
:4063C00010BD00008816002038B5044600200090A079002814D14020015D052901D00E290ED168460CF0F4F9002809D12046009902F084FC03481021428B2046FFF792FBF6
:4064000038BD00005015002010B50B4604460146184602F0E3F8002802D020460CF03CFA10BD13B5044601AA11460620FDF76CFF6846818861811CBD002800D102207047D4
:4064400070470000F8B504462346401D543300909A1EA078911E01F089FB25464035A88A298A8000FCF7ACFD401E81B2688A884203D96982A07801F0F5FF698A8C200151BA
:4064800020460021433001F0C5FB27480088E88102F0C4FFE989891C8AB26179FFF77EFD01F008FD02F0BAFF2A8A6179FFF776FD074601F0F3FC688A002806D01B49088AD3
:4064C000032212021043088202E0002001F0BEFF1648803801886E8A002E0CD0304648431349FCF757FE0004000C01D0401C80B21049488002E00F4800214180288A704380
:4065000081B2A07801F018FFFF2228374932B9B21346204602F0D2FCE98AA07801F08CFEA07801F0B9FAF8BD80102E40E0112E4071020000920D00207FB504468034616822
:4065400005460E46183108226846FCF764FE31462031082202A8FCF75EFE102168460CF0D1F86068102108300CF0CCF860682B46083024331022694602F01CFF7FBD10B5CF
:4065800004460821FFF7D9FA10212046FFF7D5FA207905281FD006281DD008281AD12189002003F045FC072020712046FEF77AFF014620464030012913D00E2101700021E3
:4065C0000176204601F050F82046FFF76BFE2046FFF7C2FE10BD20890122002103F00CFCE1E70521EAE70000FFB581B01F4604460821FFF7A2FA10212046FFF79EFA207923
:40660000082803D0092804D0042203E00422012501E009220025204600F05EFE264600204036307022712046FFF73CFE0398002D02D0012808D00BE001280AD120890022FA
:40664000029903F0D9FB04E02189029803F0F0FB012700203076012F04D0204601F004F805B0F0BD02983073204602F095FB054605480121428B2046FFF754FA002DEFD1C8
:4066800009202071ECE700005015002070B50C460546FEF707FF012809D108212846FFF74CFA0023012221462846FFF79DFF70BD10B5044600F010FE2046FFF7F3FD0021E1
:4066C0004034217010BD70B505461A24FEF7EAFE012809D108212846FFF72FFA0023012221462846FFF780FF70BD0000F8B50446002000900E4668460CF06AF8002801D0C7
:406700000D20F8BD8420005908212030009D00F02CFA20460421383000F027FA002E02D1204600F03BFE2946204602F072FA0E480821428B2046FFF7F5F9204601F005F89D
:4067400025464035002808D0204600F023F8002801D0092028700020F8BD08202870204601F06EF8F7E7000050150020014610B540310A460978082906D0092907D00A29C8
:4067800001D100F091F810BD0B20107010BD00F001F810BD70B50446007925464035052805D0062803D008280FD00C2070BD03220621204602F0C4FA0D480821428B20464D
:4067C000FFF7B0F91120287010E006202873204602F0E2FA0646AA8A0A20424301212046FFF7A0F9002E01D109202071002070BD5015002038B504460020009068460BF0EA
:40680000E7FF002801D00D2038BD2046009D00F0C3F908202071204600F0C0FD2946204602F02EFA00213D2001550F2040210855204601F005F8002038BD00B5024600F0D6
:406840004BFD10214032117000BD10B50446FEF729FE012809D04020005D112805D100231A4606212046FFF7BFFE10BD10B5FFF786FE10BD38B504460021684600910BF0C8
:40688000A7FF00280CD12046009902F07AFA05480821428B2046FFF745F90D204034207038BD00005015002038B504460021684600910BF08DFF002801D00D2038BD2046A1
:4068C000009902F053FA05480821428B2046FFF729F90C2040342070002038BD5015002000787047F8B5002569460D70002801D0002400E01F4C002C18D0204600F0F5FC45
:40690000002813D0207903280BD005280CD026464036B18AA07801F019FDB078012806D01DE0042020711DE006202071F8BD0021204601F070FE274680373868002802D082
:406940000BF0B4FF3D600020B0702079072802D12046FFF701FD0221204600F08BFF20790428E3D1207A694608703420FEF762FCF8BD0000BC15002010B54C22115400F085
:4069800052F810BD10B50446FF21FFF7D6F809202071A07801F000FD10BD000038B5FF216A461180002801D0002400E00B4C002C12D011460620FDF7A7FC684601882046DF
:4069C000FFF72FFD204600F0C7FC002804D104480068C1692046884738BD0000BC150020D40D002010B504468079002809D022214C200155FF212046FFF79FF8204600F0EE
:406A000012F810BD10B5037902464032002B03D01173092B02D003E0002100E02221117300F001F810BDFEB504460089002700902781207926464036002817D0012815D01E
:406A400002280AD112E002AA01A9204601F0B4FD002807D101980BF01FFF204601F0D4FD0028F0D02046FEF76DFCB776254680352868002802D00BF019FF2F6068680028CA
:406A800002D00BF013FF6F60317B002919D0009800F064F8A078002101F01AF82046FFF773FAA07801F0ECF8A07800F0CBFDFF212046FFF742F80B20FEF7C4FF00F0A8FC97
:406AC000FEBD1F213173E2E7F8B517460E46054602F0A0FC04003CD020460C3001F08AF82046062200211830FCF79EFB2046062200211230FCF798FB16482246006839462B
:406B0000436A28469847074626702846FEF7CAFC012148406070002D10D02889608028464030C1782171002E0FD169796171018AE180418A2181808A608106E00648008BC9
:406B4000C005C00F2071002060803946204603F0F2F8F8BDB80D002000102E400A4610B50146002003F004FA10BD10B50BF0A6FB10BD000000B50146FFF7E0F9002801D0EA
:406B8000002000E00348002802D002898A4200D0002000BDBC15002038B5044680346068002806D168460BF023FE002801D100986060606838BD000010B5014600F0C6FB53
:406BC0000128887802D0FEF777FC10BD90214843024940186030007F10BD00009C15002070B5054604464035A87F012811D1A1789020084A484380186030067F3046FEF7BA
:406C00000FFE002805D10220A877A078314601F0E1F870BD9C15002010B50C4CA07A002813D0FEF7A9FE0A48027F417F408B00F0F7FB012809D10020A07200F091FF054990
:406C40008989090B01D000F03BFA10BD6C1600209C150020A0102E4070477047490510B5490F0B00FCF7E6FC060704080C0C0F073E21FFF781FE10BD0821FFF7C3FE10BD4C
:406C8000FFF7D1FE10BDFFF7ADFE10BDF8B507460025002D01D0002600E0204E00F02EFF3046403044890021418100F031FF304600F01BFB01282BD1A00702D52846FFF7ED
:406CC00011FEE00602D52846FFF768FEA00601D5FEF752FE600601D500F054FB200602D5284600F01DF8600702D5284600F046FA380402D52846FFF713FB780402D5284630
:406D0000FFF700FBE00703D021463046FFF7A6FF6D1C2D062D0EBCD0F8BD0000BC150020F8B5002801D0002400E0284C002C4BD025464035A878012846D1FF278820493714
:406D400000593E46002805D02149097B890601D5878AC68A2046FEF7A5FB012834D002F05DFB2A8A6179FFF719F9009001F096F800983346283081B23A46204602F09EF864
:406D8000E98AA07801F058FA12480188688A124E002810D048431149FCF7FCF90004000C01D0401C80B27080A07DC107C90F002001F01EFB01E000207080288A698A484394
:406DC00081B2A07801F0B8FAF8BD0000BC1500205015002060112E40920D0020710200000149096809680847D40D002070B50D460026194A0146002801D0002401E014464D
:406E00002034002C26D0204600F0A0FA01280AD19020484380186030007FFEF701FD002801D101F039FF0D48006881692046884700280CD020464030817EA94202D3491B17
:406E4000817600E086762089294603F032F8204600F0F6FC70BD00009C150020D40D002070B503460088FFF785FE040013D000F03CFA00280FD02079092819D02546997811
:406E800040352973204601F087FF0646A878012803D0AA8A02E0022070BDEA880A20424301212046FEF73EFE002E01D109202071002070BD0EB5002217216B46029219813A
:406EC00000905A810120029B00990BF08FFD0EBDF8B518480024807A002822D1164E0025B089000B22E0204600F0A4FE1249A039401807882A462146384600F091FA01285D
:406F000010D00E480122478305770A4944778A72002D01D0002000E02030002801D000F08FFCF8BDB089000B641CE4B20028DAD1F8BD00006C160020A0102E409C150020BE
:406F400010B50088FFF716FE002809D0014640310C460978082905D00B2903D00C2010BD022010BDFFF716FC002801D009202070002010BD70B503460088FFF7FBFD0400AA
:406F800008D0254640352878082805D00B2803D00C2070BD022070BD8420005910220830991CFCF738F92046FFF7C6FA2878082804D02046FFF778FC002801D00A2028703B
:406FC000204600F03DFC002070BD000010B50C46002121700088FFF7CDFD03000BD000F084F9002807D00948F121007B0840C00603D4112010BD022010BD022020701A8A54
:407000001889002102F0D0FF002010BD50150020F8B50F46002100910088FFF7ABFD040012D000F062F900280ED0E079410641D4617E02264A07002A08DB89074025002912
:407040001ADA2843E07135E00220F8BD02F0E2F90021017021894180A1898180217E4170E189C1803E7005460178134802F06AFC284602F03DFF1DE0204600F06DF90128E1
:4070800006D068460BF0A4FB002803D00720F8BD2A20F8BDE07900992843E071204601F0A5FE607E0421304360760448428B2046FEF738FD0020F8BD1D04000050150020C4
:4070C0003EB500220F236C460292238100910190628169460EC900200BF088FC3EBD0000F8B50F46054600F02BFB04002AD000F007F900282AD0032020712546002640350D
:40710000EE76E6702046FFF79DF901F081F80920FEF798FCA07800F0A1FD0121204600F0A9FB2E706E70AE703A4600212046FFF7CBFC0F49887B401C8873A078FFF750FE59
:40714000022012E0284601F027F9F8BD002001F023F90848008B4007800F012802D1064801F09EF801F05EF80120FEF76BFCF8BD9C15002000102E40C00D002010B5002876
:4071800001D0002000E0094800280DD0014640310A464978022901D100215170807DC107C90F002001F024F910BD0000BC15002070B503460D460088FFF7DCFC04000BD081
:4071C00000F093F8002807D01248F121007B0840C00603D4112070BD022070BD20464030418A008A491C41430804C10C5888884201D2122070BD20822079072802D1204630
:40720000FFF7AAF8022028702089002102F0F4FE002070BD50150020016A491C016204D1817E491C4906490E81767047C169491CC16104D1C17E491C4906490EC1767047FE
